{
  "contractName": "Agorum",
  "abi": [
    {
      "anonymous": false,
      "inputs": [
        {
          "indexed": false,
          "internalType": "address",
          "name": "agorumCreator",
          "type": "address"
        },
        {
          "indexed": false,
          "internalType": "string",
          "name": "title",
          "type": "string"
        },
        {
          "indexed": false,
          "internalType": "string",
          "name": "description",
          "type": "string"
        },
        {
          "indexed": false,
          "internalType": "string[]",
          "name": "categories",
          "type": "string[]"
        },
        {
          "indexed": false,
          "internalType": "uint256",
          "name": "created_at",
          "type": "uint256"
        }
      ],
      "name": "AgorumCreated",
      "type": "event"
    },
    {
      "anonymous": false,
      "inputs": [
        {
          "indexed": false,
          "internalType": "address",
          "name": "from",
          "type": "address"
        },
        {
          "indexed": false,
          "internalType": "uint256",
          "name": "amount",
          "type": "uint256"
        }
      ],
      "name": "ReceivedTokens",
      "type": "event"
    },
    {
      "inputs": [
        {
          "internalType": "address",
          "name": "",
          "type": "address"
        }
      ],
      "name": "contributors",
      "outputs": [
        {
          "internalType": "uint256",
          "name": "",
          "type": "uint256"
        }
      ],
      "stateMutability": "view",
      "type": "function",
      "constant": true
    },
    {
      "stateMutability": "payable",
      "type": "receive",
      "payable": true
    },
    {
      "inputs": [
        {
          "internalType": "string",
          "name": "_title",
          "type": "string"
        },
        {
          "internalType": "string",
          "name": "_description",
          "type": "string"
        },
        {
          "internalType": "string[]",
          "name": "_categories",
          "type": "string[]"
        }
      ],
      "name": "createNewCourseSkeleton",
      "outputs": [],
      "stateMutability": "nonpayable",
      "type": "function"
    },
    {
      "inputs": [
        {
          "internalType": "address",
          "name": "_contributorAddress",
          "type": "address"
        },
        {
          "internalType": "uint256",
          "name": "_reward",
          "type": "uint256"
        }
      ],
      "name": "addContributor",
      "outputs": [],
      "stateMutability": "nonpayable",
      "type": "function"
    }
  ],
  "bytecode": "0x608060405234801561001057600080fd5b50610b78806100206000396000f3fe6080604052600436106100385760003560e01c80631f6d49421461007d578063b59ffef5146100ba578063e0bd7d15146100e357610078565b36610078577f2946de6c4ec03d8d15126164a7c0da68d7c6835173e41827a7a715f8becb07a8333460405161006e9291906108a1565b60405180910390a1005b600080fd5b34801561008957600080fd5b506100a4600480360381019061009f9190610626565b61010c565b6040516100b191906108ca565b60405180910390f35b3480156100c657600080fd5b506100e160048036038101906100dc919061068b565b610124565b005b3480156100ef57600080fd5b5061010a6004803603810190610105919061064f565b6102f4565b005b60056020528060005260406000206000915090505481565b60004290506040518060a001604052803373ffffffffffffffffffffffffffffffffffffffff16815260200188888080601f016020809104026020016040519081016040528093929190818152602001838380828437600081840152601f19601f82011690508083019250505050505050815260200186868080601f016020809104026020016040519081016040528093929190818152602001838380828437600081840152601f19601f8201169050808301925050505050505081526020018484906101f19190610a4f565b8152602001828152506000808201518160000160006101000a81548173ffffffffffffffffffffffffffffffffffffffff021916908373ffffffffffffffffffffffffffffffffffffffff160217905550602082015181600101908051906020019061025e92919061033c565b50604082015181600201908051906020019061027b92919061033c565b5060608201518160030190805190602001906102989291906103c2565b50608082015181600401559050507fcc28c8abbe858d1c5f5ce6bf11720020b78736dd75d1ceecf34b85bb6712d18933888888888888886040516102e3989796959493929190610833565b60405180910390a150505050505050565b80600560008473ffffffffffffffffffffffffffffffffffffffff1673ffffffffffffffffffffffffffffffffffffffff168152602001908152602001600020819055505050565b82805461034890610a73565b90600052602060002090601f01602090048101928261036a57600085556103b1565b82601f1061038357805160ff19168380011785556103b1565b828001600101855582156103b1579182015b828111156103b0578251825591602001919060010190610395565b5b5090506103be9190610422565b5090565b828054828255906000526020600020908101928215610411579160200282015b8281111561041057825182908051906020019061040092919061033c565b50916020019190600101906103e2565b5b50905061041e919061043f565b5090565b5b8082111561043b576000816000905550600101610423565b5090565b5b8082111561045f57600081816104569190610463565b50600101610440565b5090565b50805461046f90610a73565b6000825580601f1061048157506104a0565b601f01602090049060005260206000209081019061049f9190610422565b5b50565b60006104b66104b184610916565b6108e5565b9050808382526020820190508260005b858110156104f657813585016104dc88826105e7565b8452602084019350602083019250506001810190506104c6565b5050509392505050565b600061051361050e84610942565b6108e5565b90508281526020810184848401111561052b57600080fd5b610536848285610a64565b509392505050565b60008135905061054d81610b14565b92915050565b60008083601f84011261056557600080fd5b8235905067ffffffffffffffff81111561057e57600080fd5b60208301915083602082028301111561059657600080fd5b9250929050565b60008083601f8401126105af57600080fd5b8235905067ffffffffffffffff8111156105c857600080fd5b6020830191508360018202830111156105e057600080fd5b9250929050565b600082601f8301126105f857600080fd5b8135610608848260208601610500565b91505092915050565b60008135905061062081610b2b565b92915050565b60006020828403121561063857600080fd5b60006106468482850161053e565b91505092915050565b6000806040838503121561066257600080fd5b60006106708582860161053e565b925050602061068185828601610611565b9150509250929050565b600080600080600080606087890312156106a457600080fd5b600087013567ffffffffffffffff8111156106be57600080fd5b6106ca89828a0161059d565b9650965050602087013567ffffffffffffffff8111156106e957600080fd5b6106f589828a0161059d565b9450945050604087013567ffffffffffffffff81111561071457600080fd5b61072089828a01610553565b92509250509295509295509295565b600061073c8484846107ca565b90509392505050565b61074e81610a13565b82525050565b60006107608385610989565b93508360208402850161077284610972565b8060005b878110156107b857848403895261078d82846109bc565b61079886828461072f565b95506107a38461097c565b935060208b019a505050600181019050610776565b50829750879450505050509392505050565b60006107d6838561099a565b93506107e3838584610a64565b6107ec83610b03565b840190509392505050565b600061080383856109ab565b9350610810838584610a64565b61081983610b03565b840190509392505050565b61082d81610a45565b82525050565b600060a082019050610848600083018b610745565b818103602083015261085b81898b6107f7565b905081810360408301526108708187896107f7565b90508181036060830152610885818587610754565b90506108946080830184610824565b9998505050505050505050565b60006040820190506108b66000830185610745565b6108c36020830184610824565b9392505050565b60006020820190506108df6000830184610824565b92915050565b6000604051905081810181811067ffffffffffffffff8211171561090c5761090b610ad4565b5b8060405250919050565b600067ffffffffffffffff82111561093157610930610ad4565b5b602082029050602081019050919050565b600067ffffffffffffffff82111561095d5761095c610ad4565b5b601f19601f8301169050602081019050919050565b6000819050919050565b6000602082019050919050565b600082825260208201905092915050565b600082825260208201905092915050565b600082825260208201905092915050565b600080833560016020038436030381126109d557600080fd5b83810192508235915060208301925067ffffffffffffffff8211156109f957600080fd5b600182023603841315610a0b57600080fd5b509250929050565b6000610a1e82610a25565b9050919050565b600073ffffffffffffffffffffffffffffffffffffffff82169050919050565b6000819050919050565b6000610a5c3684846104a3565b905092915050565b82818337600083830152505050565b60006002820490506001821680610a8b57607f821691505b60208210811415610a9f57610a9e610aa5565b5b50919050565b7f4e487b7100000000000000000000000000000000000000000000000000000000600052602260045260246000fd5b7f4e487b7100000000000000000000000000000000000000000000000000000000600052604160045260246000fd5b6000601f19601f8301169050919050565b610b1d81610a13565b8114610b2857600080fd5b50565b610b3481610a45565b8114610b3f57600080fd5b5056fea2646970667358221220b95f83d32514eeafe1d1d643697bf5ebd92b11231c0adfd59856ccdf51403fb964736f6c63430008000033",
  "immutableReferences": {},
  "source": "// SPDX-License-Identifier: GPL-3.0\npragma solidity ^0.8.0;\n\nimport \"../node_modules/@openzeppelin/contracts/utils/math/SafeMath.sol\";\n\ncontract Agorum {\n  // course struct stores a record of course metadata\n  struct Course {\n    address payable creator;\n    string title;\n    string description;\n    string[] categories;\n    uint256 created_at;\n  }\n\n  // state variables\n  Course course; // course metadata of the agorum\n  // payroll of Agorum contributors\n  mapping(address => uint) public contributors;\n\n  // event emitted whenever a new agorum is created\n  event AgorumCreated(\n    address agorumCreator,\n    string title,\n    string description,\n    string[] categories,\n    uint created_at\n  );\n\n  // event emitted whenever someone pays tokens to contract, such as unlocking course content\n  event ReceivedTokens(address from, uint amount);\n\n  /** @dev Creates a new course skeleton and pushes it to list\n    * @param _title course title\n    * @param _description course description\n    * @param _categories the categories the course belongs to\n   */\n  function createNewCourseSkeleton(\n    string calldata _title,\n    string calldata _description,\n    string[] calldata _categories\n  ) external {\n    uint created_at = block.timestamp;\n    course = Course(payable(msg.sender), _title, _description, _categories, created_at);\n\n    emit AgorumCreated(msg.sender, _title, _description, _categories, created_at);\n  }\n\n  /** @dev Adds a new contributor to payroll along with their reward\n    * @param _contributorAddress the address of the contributor to add\n    * @param _reward the reward set by community standard\n   */\n  function addContributor(address _contributorAddress,  uint _reward) external {\n    contributors[_contributorAddress] = _reward;\n  }\n\n  /** @dev Pays a contributor on the payroll when funds are available\n   */\n  function payContributor() internal {\n    \n  }\n\n  receive() external payable {\n    emit ReceivedTokens(msg.sender, msg.value);\n  }\n}\n\n// contract Course {\n//   // state variables\n\n\n//   constructor(\n//     address payable _creator,\n//     string memory _title,\n//     string memory _description,\n//     string[] memory _categories,\n//     uint256 _created_at\n//   ) {\n//     creator = _creator;\n//     title = _title;\n//     description = _description;\n//     categories = _categories;\n//     created_at = _created_at;\n//   }\n\n//   function getCourseDetails() public {\n\n//   }\n// }",
  "sourcePath": "/home/victor/agora/blockchain/contracts/Agorum.sol",
  "compiler": {
    "name": "solc",
    "version": "0.8.0+commit.c7dfd78e.Emscripten.clang"
  },
  "schemaVersion": "3.3.4",
  "updatedAt": "2021-04-18T01:58:20.055Z",
  "networkType": "ethereum",
  "devdoc": {
    "kind": "dev",
    "methods": {
      "addContributor(address,uint256)": {
        "details": "Adds a new contributor to payroll along with their reward",
        "params": {
          "_contributorAddress": "the address of the contributor to add",
          "_reward": "the reward set by community standard"
        }
      },
      "createNewCourseSkeleton(string,string,string[])": {
        "details": "Creates a new course skeleton and pushes it to list",
        "params": {
          "_categories": "the categories the course belongs to",
          "_description": "course description",
          "_title": "course title"
        }
      }
    },
    "version": 1
  },
  "userdoc": {
    "kind": "user",
    "methods": {},
    "version": 1
  }
}