{
  "contractName": "Agorum",
  "abi": [
    {
      "anonymous": false,
      "inputs": [
        {
          "indexed": false,
          "internalType": "address",
          "name": "contractAddress",
          "type": "address"
        },
        {
          "indexed": false,
          "internalType": "address",
          "name": "agorumCreator",
          "type": "address"
        },
        {
          "indexed": false,
          "internalType": "string",
          "name": "title",
          "type": "string"
        },
        {
          "indexed": false,
          "internalType": "string",
          "name": "description",
          "type": "string"
        },
        {
          "indexed": false,
          "internalType": "string[]",
          "name": "categories",
          "type": "string[]"
        },
        {
          "indexed": false,
          "internalType": "uint256",
          "name": "created_at",
          "type": "uint256"
        }
      ],
      "name": "AgorumCreated",
      "type": "event"
    },
    {
      "inputs": [
        {
          "internalType": "string",
          "name": "_title",
          "type": "string"
        },
        {
          "internalType": "string",
          "name": "_description",
          "type": "string"
        },
        {
          "internalType": "string[]",
          "name": "_categories",
          "type": "string[]"
        }
      ],
      "name": "createNewCourseSkeleton",
      "outputs": [],
      "stateMutability": "nonpayable",
      "type": "function"
    }
  ],
  "bytecode": "0x608060405234801561001057600080fd5b50611195806100206000396000f3fe60806040523480156200001157600080fd5b50600436106200002e5760003560e01c8063b59ffef51462000033575b600080fd5b6200005160048036038101906200004b919062000201565b62000053565b005b600042905060003388888888888888604051620000709062000159565b62000083989796959493929190620003e2565b604051809103906000f080158015620000a0573d6000803e3d6000fd5b5090506000819080600181540180825580915050600190039060005260206000200160009091909190916101000a81548173ffffffffffffffffffffffffffffffffffffffff021916908373ffffffffffffffffffffffffffffffffffffffff1602179055507ffd7c86fd1d64ad277d88aa9bf95ff4042069e99c8d452f8d51ff6b7e6e44387981338a8a8a8a8a8a8a60405162000147999897969594939291906200045a565b60405180910390a15050505050505050565b610b6780620005f983390190565b60008083601f8401126200017a57600080fd5b8235905067ffffffffffffffff8111156200019457600080fd5b602083019150836020820283011115620001ad57600080fd5b9250929050565b60008083601f840112620001c757600080fd5b8235905067ffffffffffffffff811115620001e157600080fd5b602083019150836001820283011115620001fa57600080fd5b9250929050565b600080600080600080606087890312156200021b57600080fd5b600087013567ffffffffffffffff8111156200023657600080fd5b6200024489828a01620001b4565b9650965050602087013567ffffffffffffffff8111156200026457600080fd5b6200027289828a01620001b4565b9450945050604087013567ffffffffffffffff8111156200029257600080fd5b620002a089828a0162000167565b92509250509295509295509295565b6000620002be8484846200036b565b90509392505050565b620002d2816200059a565b82525050565b620002e38162000586565b82525050565b6000620002f78385620004f9565b9350836020840285016200030b84620004e2565b8060005b87811015620003595784840389526200032982846200052c565b62000336868284620002af565b95506200034384620004ec565b935060208b019a5050506001810190506200030f565b50829750879450505050509392505050565b60006200037983856200050a565b935062000388838584620005d8565b6200039383620005e7565b840190509392505050565b6000620003ac83856200051b565b9350620003bb838584620005d8565b620003c683620005e7565b840190509392505050565b620003dc81620005ce565b82525050565b600060a082019050620003f9600083018b620002c7565b81810360208301526200040e81898b6200039e565b90508181036040830152620004258187896200039e565b905081810360608301526200043c818587620002e9565b90506200044d6080830184620003d1565b9998505050505050505050565b600060c08201905062000471600083018c620002d8565b62000480602083018b620002d8565b81810360408301526200049581898b6200039e565b90508181036060830152620004ac8187896200039e565b90508181036080830152620004c3818587620002e9565b9050620004d460a0830184620003d1565b9a9950505050505050505050565b6000819050919050565b6000602082019050919050565b600082825260208201905092915050565b600082825260208201905092915050565b600082825260208201905092915050565b600080833560016020038436030381126200054657600080fd5b83810192508235915060208301925067ffffffffffffffff8211156200056b57600080fd5b6001820236038413156200057e57600080fd5b509250929050565b60006200059382620005ae565b9050919050565b6000620005a782620005ae565b9050919050565b600073ffffffffffffffffffffffffffffffffffffffff82169050919050565b6000819050919050565b82818337600083830152505050565b6000601f19601f830116905091905056fe60806040523480156200001157600080fd5b5060405162000b6738038062000b6783398181016040528101906200003791906200038b565b846000806101000a81548173ffffffffffffffffffffffffffffffffffffffff021916908373ffffffffffffffffffffffffffffffffffffffff16021790555083600190805190602001906200008f929190620000d4565b508260029080519060200190620000a8929190620000d4565b508160039080519060200190620000c192919062000165565b508060048190555050505050506200062a565b828054620000e29062000562565b90600052602060002090601f01602090048101928262000106576000855562000152565b82601f106200012157805160ff191683800117855562000152565b8280016001018555821562000152579182015b828111156200015157825182559160200191906001019062000134565b5b509050620001619190620001cc565b5090565b828054828255906000526020600020908101928215620001b9579160200282015b82811115620001b8578251829080519060200190620001a7929190620000d4565b509160200191906001019062000186565b5b509050620001c89190620001eb565b5090565b5b80821115620001e7576000816000905550600101620001cd565b5090565b5b808211156200020f576000818162000205919062000213565b50600101620001ec565b5090565b508054620002219062000562565b6000825580601f1062000235575062000256565b601f016020900490600052602060002090810190620002559190620001cc565b5b50565b6000620002706200026a846200048c565b62000458565b9050808382526020820190508260005b85811015620002b4578151850162000299888262000347565b84526020840193506020830192505060018101905062000280565b5050509392505050565b6000620002d5620002cf84620004bb565b62000458565b905082815260208101848484011115620002ee57600080fd5b620002fb8482856200052c565b509392505050565b6000815190506200031481620005f6565b92915050565b600082601f8301126200032c57600080fd5b81516200033e84826020860162000259565b91505092915050565b600082601f8301126200035957600080fd5b81516200036b848260208601620002be565b91505092915050565b600081519050620003858162000610565b92915050565b600080600080600060a08688031215620003a457600080fd5b6000620003b48882890162000303565b955050602086015167ffffffffffffffff811115620003d257600080fd5b620003e08882890162000347565b945050604086015167ffffffffffffffff811115620003fe57600080fd5b6200040c8882890162000347565b935050606086015167ffffffffffffffff8111156200042a57600080fd5b62000438888289016200031a565b92505060806200044b8882890162000374565b9150509295509295909350565b6000604051905081810181811067ffffffffffffffff82111715620004825762000481620005c7565b5b8060405250919050565b600067ffffffffffffffff821115620004aa57620004a9620005c7565b5b602082029050602081019050919050565b600067ffffffffffffffff821115620004d957620004d8620005c7565b5b601f19601f8301169050602081019050919050565b6000620004fb8262000502565b9050919050565b600073ffffffffffffffffffffffffffffffffffffffff82169050919050565b6000819050919050565b60005b838110156200054c5780820151818401526020810190506200052f565b838111156200055c576000848401525b50505050565b600060028204905060018216806200057b57607f821691505b6020821081141562000592576200059162000598565b5b50919050565b7f4e487b7100000000000000000000000000000000000000000000000000000000600052602260045260246000fd5b7f4e487b7100000000000000000000000000000000000000000000000000000000600052604160045260246000fd5b6200060181620004ee565b81146200060d57600080fd5b50565b6200061b8162000522565b81146200062757600080fd5b50565b61052d806200063a6000396000f3fe608060405234801561001057600080fd5b50600436106100575760003560e01c806302d05d3f1461005c5780634a79d50c1461007a5780637284e416146100985780639c6f0d85146100b6578063c6cdbe5e146100d4575b600080fd5b610064610104565b604051610071919061038b565b60405180910390f35b610082610128565b60405161008f91906103a6565b60405180910390f35b6100a06101b6565b6040516100ad91906103a6565b60405180910390f35b6100be610244565b6040516100cb91906103c8565b60405180910390f35b6100ee60048036038101906100e9919061030b565b61024a565b6040516100fb91906103a6565b60405180910390f35b60008054906101000a900473ffffffffffffffffffffffffffffffffffffffff1681565b600180546101359061046e565b80601f01602080910402602001604051908101604052809291908181526020018280546101619061046e565b80156101ae5780601f10610183576101008083540402835291602001916101ae565b820191906000526020600020905b81548152906001019060200180831161019157829003601f168201915b505050505081565b600280546101c39061046e565b80601f01602080910402602001604051908101604052809291908181526020018280546101ef9061046e565b801561023c5780601f106102115761010080835404028352916020019161023c565b820191906000526020600020905b81548152906001019060200180831161021f57829003601f168201915b505050505081565b60045481565b6003818154811061025a57600080fd5b9060005260206000200160009150905080546102759061046e565b80601f01602080910402602001604051908101604052809291908181526020018280546102a19061046e565b80156102ee5780601f106102c3576101008083540402835291602001916102ee565b820191906000526020600020905b8154815290600101906020018083116102d157829003601f168201915b505050505081565b600081359050610305816104e0565b92915050565b60006020828403121561031d57600080fd5b600061032b848285016102f6565b91505092915050565b61033d816103ff565b82525050565b600061034e826103e3565b61035881856103ee565b935061036881856020860161043b565b610371816104cf565b840191505092915050565b61038581610431565b82525050565b60006020820190506103a06000830184610334565b92915050565b600060208201905081810360008301526103c08184610343565b905092915050565b60006020820190506103dd600083018461037c565b92915050565b600081519050919050565b600082825260208201905092915050565b600061040a82610411565b9050919050565b600073ffffffffffffffffffffffffffffffffffffffff82169050919050565b6000819050919050565b60005b8381101561045957808201518184015260208101905061043e565b83811115610468576000848401525b50505050565b6000600282049050600182168061048657607f821691505b6020821081141561049a576104996104a0565b5b50919050565b7f4e487b7100000000000000000000000000000000000000000000000000000000600052602260045260246000fd5b6000601f19601f8301169050919050565b6104e981610431565b81146104f457600080fd5b5056fea26469706673582212207b9d85c506de0e11b6d1203e761bf949e1a53f645abc4f244b650a518425940364736f6c63430008000033a2646970667358221220aa40f24c4cc378670b76bd9add7b5f76e937ff3b65567eed69d28be6c75c397c64736f6c63430008000033",
  "immutableReferences": {},
  "source": "// SPDX-License-Identifier: GPL-3.0\npragma solidity ^0.8.0;\n\n// import \"@openzeppelin/utils/math/SafeMath.sol\";\nimport \"../node_modules/@openzeppelin/contracts/utils/math/SafeMath.sol\";\n\ncontract Agorum {\n  using SafeMath for uint256;\n\n  // store list of all courses\n  Course[] private courses;\n\n  // event emitted whenever a new agorum is created\n  event AgorumCreated(\n    address contractAddress,\n    address agorumCreator,\n    string title,\n    string description,\n    string[] categories,\n    uint created_at\n  );\n\n  /** @dev Creates a new course skeleton and pushes it to list\n    * @param _title course title\n    * @param _description course description\n    * @param _categories the categories the course belongs to\n   */\n  function createNewCourseSkeleton(\n    string calldata _title,\n    string calldata _description,\n    string[] calldata _categories\n  ) external {\n    uint created_at = block.timestamp;\n    Course newCourse = new Course(payable(msg.sender), _title, _description, _categories, created_at);\n    courses.push(newCourse);\n\n    emit AgorumCreated(address(newCourse), msg.sender, _title, _description, _categories, created_at);\n  }\n}\n\ncontract Course {\n  using SafeMath for uint256;\n\n  // state variables\n  address payable public creator;\n  string public title;\n  string public description;\n  string[] public categories;\n  uint256 public created_at;\n\n  constructor(\n    address payable _creator,\n    string memory _title,\n    string memory _description,\n    string[] memory _categories,\n    uint256 _created_at\n  ) {\n    creator = _creator;\n    title = _title;\n    description = _description;\n    categories = _categories;\n    created_at = _created_at;\n  }\n}",
  "sourcePath": "/home/victor/agora/blockchain/contracts/Agorum.sol",
  "compiler": {
    "name": "solc",
    "version": "0.8.0+commit.c7dfd78e.Emscripten.clang"
  },
  "schemaVersion": "3.3.4",
  "updatedAt": "2021-04-17T18:43:04.429Z",
  "devdoc": {
    "kind": "dev",
    "methods": {
      "createNewCourseSkeleton(string,string,string[])": {
        "details": "Creates a new course skeleton and pushes it to list",
        "params": {
          "_categories": "the categories the course belongs to",
          "_description": "course description",
          "_title": "course title"
        }
      }
    },
    "version": 1
  },
  "userdoc": {
    "kind": "user",
    "methods": {},
    "version": 1
  }
}